{
  "contractName": "Warranty",
  "abi": [
    {
      "inputs": [],
      "stateMutability": "nonpayable",
      "type": "constructor"
    },
    {
      "anonymous": false,
      "inputs": [
        {
          "indexed": false,
          "internalType": "address",
          "name": "owner",
          "type": "address"
        },
        {
          "indexed": false,
          "internalType": "uint256",
          "name": "fileID",
          "type": "uint256"
        },
        {
          "indexed": false,
          "internalType": "string",
          "name": "fileURL",
          "type": "string"
        },
        {
          "indexed": false,
          "internalType": "string",
          "name": "fileName",
          "type": "string"
        },
        {
          "indexed": false,
          "internalType": "int256",
          "name": "price",
          "type": "int256"
        },
        {
          "indexed": false,
          "internalType": "int256",
          "name": "fileSize",
          "type": "int256"
        },
        {
          "indexed": false,
          "internalType": "string",
          "name": "fileDescription",
          "type": "string"
        },
        {
          "indexed": false,
          "internalType": "uint256",
          "name": "uploadTime",
          "type": "uint256"
        },
        {
          "indexed": false,
          "internalType": "uint256",
          "name": "warrantyTime",
          "type": "uint256"
        }
      ],
      "name": "FileUploaded",
      "type": "event"
    },
    {
      "inputs": [
        {
          "internalType": "address",
          "name": "",
          "type": "address"
        },
        {
          "internalType": "uint256",
          "name": "",
          "type": "uint256"
        }
      ],
      "name": "fileMap",
      "outputs": [
        {
          "internalType": "address",
          "name": "owner",
          "type": "address"
        },
        {
          "internalType": "uint256",
          "name": "fileID",
          "type": "uint256"
        },
        {
          "internalType": "string",
          "name": "fileURL",
          "type": "string"
        },
        {
          "internalType": "string",
          "name": "fileName",
          "type": "string"
        },
        {
          "internalType": "int256",
          "name": "price",
          "type": "int256"
        },
        {
          "internalType": "int256",
          "name": "fileSize",
          "type": "int256"
        },
        {
          "internalType": "string",
          "name": "fileDescription",
          "type": "string"
        },
        {
          "internalType": "uint256",
          "name": "uploadTime",
          "type": "uint256"
        },
        {
          "internalType": "uint256",
          "name": "warrantyTime",
          "type": "uint256"
        }
      ],
      "stateMutability": "view",
      "type": "function",
      "constant": true
    },
    {
      "inputs": [
        {
          "internalType": "address",
          "name": "_owner",
          "type": "address"
        },
        {
          "internalType": "string",
          "name": "_fileURL",
          "type": "string"
        },
        {
          "internalType": "string",
          "name": "_fileName",
          "type": "string"
        },
        {
          "internalType": "int256",
          "name": "_price",
          "type": "int256"
        },
        {
          "internalType": "int256",
          "name": "_fileSize",
          "type": "int256"
        },
        {
          "internalType": "string",
          "name": "_fileDescription",
          "type": "string"
        },
        {
          "internalType": "uint256",
          "name": "_warrantyTime",
          "type": "uint256"
        }
      ],
      "name": "uploadFile",
      "outputs": [],
      "stateMutability": "nonpayable",
      "type": "function"
    },
    {
      "inputs": [],
      "name": "getOwner",
      "outputs": [
        {
          "internalType": "address",
          "name": "",
          "type": "address"
        }
      ],
      "stateMutability": "view",
      "type": "function",
      "constant": true
    },
    {
      "inputs": [
        {
          "internalType": "address",
          "name": "newOwner",
          "type": "address"
        },
        {
          "internalType": "uint256",
          "name": "ID",
          "type": "uint256"
        }
      ],
      "name": "transferOwner",
      "outputs": [],
      "stateMutability": "nonpayable",
      "type": "function"
    },
    {
      "inputs": [],
      "name": "getFileCount",
      "outputs": [
        {
          "internalType": "uint256",
          "name": "",
          "type": "uint256"
        }
      ],
      "stateMutability": "view",
      "type": "function",
      "constant": true
    },
    {
      "inputs": [
        {
          "internalType": "address",
          "name": "ownerAddress",
          "type": "address"
        }
      ],
      "name": "getData",
      "outputs": [
        {
          "components": [
            {
              "internalType": "address",
              "name": "owner",
              "type": "address"
            },
            {
              "internalType": "uint256",
              "name": "fileID",
              "type": "uint256"
            },
            {
              "internalType": "string",
              "name": "fileURL",
              "type": "string"
            },
            {
              "internalType": "string",
              "name": "fileName",
              "type": "string"
            },
            {
              "internalType": "int256",
              "name": "price",
              "type": "int256"
            },
            {
              "internalType": "int256",
              "name": "fileSize",
              "type": "int256"
            },
            {
              "internalType": "string",
              "name": "fileDescription",
              "type": "string"
            },
            {
              "internalType": "uint256",
              "name": "uploadTime",
              "type": "uint256"
            },
            {
              "internalType": "uint256",
              "name": "warrantyTime",
              "type": "uint256"
            }
          ],
          "internalType": "struct Warranty.FileData[]",
          "name": "",
          "type": "tuple[]"
        }
      ],
      "stateMutability": "view",
      "type": "function",
      "constant": true
    }
  ],
  "bytecode": "0x6080604052600060015534801561001557600080fd5b50336000806101000a81548173ffffffffffffffffffffffffffffffffffffffff021916908373ffffffffffffffffffffffffffffffffffffffff1602179055506116b5806100656000396000f3fe608060405234801561001057600080fd5b50600436106100625760003560e01c80631acbd7cb146100675780631c02a7751461009f57806338266b22146100bb578063893d20e8146100eb578063bab50cc914610109578063e53c454814610127575b600080fd5b610081600480360381019061007c9190611074565b610143565b604051610096999897969594939291906112f3565b60405180910390f35b6100b960048036038101906100b49190610f8e565b610366565b005b6100d560048036038101906100d09190610f65565b6105ee565b6040516100e29190611395565b60405180910390f35b6100f36108cb565b60405161010091906112d8565b60405180910390f35b6101116108f4565b60405161011e91906113b7565b60405180910390f35b610141600480360381019061013c9190611074565b6108fe565b005b6002602052816000526040600020818154811061015f57600080fd5b9060005260206000209060090201600091509150508060000160009054906101000a900473ffffffffffffffffffffffffffffffffffffffff16908060010154908060020180546101af90611521565b80601f01602080910402602001604051908101604052809291908181526020018280546101db90611521565b80156102285780601f106101fd57610100808354040283529160200191610228565b820191906000526020600020905b81548152906001019060200180831161020b57829003601f168201915b50505050509080600301805461023d90611521565b80601f016020809104026020016040519081016040528092919081815260200182805461026990611521565b80156102b65780601f1061028b576101008083540402835291602001916102b6565b820191906000526020600020905b81548152906001019060200180831161029957829003601f168201915b5050505050908060040154908060050154908060060180546102d790611521565b80601f016020809104026020016040519081016040528092919081815260200182805461030390611521565b80156103505780601f1061032557610100808354040283529160200191610350565b820191906000526020600020905b81548152906001019060200180831161033357829003601f168201915b5050505050908060070154908060080154905089565b60008651118015610378575060008551115b80156103845750600083135b8015610391575060008251115b80156103ca5750600073ffffffffffffffffffffffffffffffffffffffff163373ffffffffffffffffffffffffffffffffffffffff1614155b156105e557600260008060009054906101000a900473ffffffffffffffffffffffffffffffffffffffff1673ffffffffffffffffffffffffffffffffffffffff1673ffffffffffffffffffffffffffffffffffffffff1681526020019081526020016000206040518061012001604052808973ffffffffffffffffffffffffffffffffffffffff168152602001600154815260200188815260200187815260200186815260200185815260200184815260200142815260200183815250908060018154018082558091505060019003906000526020600020906009020160009091909190915060008201518160000160006101000a81548173ffffffffffffffffffffffffffffffffffffffff021916908373ffffffffffffffffffffffffffffffffffffffff16021790555060208201518160010155604082015181600201908051906020019061051d929190610e1b565b50606082015181600301908051906020019061053a929190610e1b565b506080820151816004015560a0820151816005015560c082015181600601908051906020019061056b929190610e1b565b5060e08201518160070155610100820151816008015550507f48344e5c2310b5d042e31b2ab8f35ff6b20df0c45cd21b16f92f2c2ab9dd40f187600154888888888842896040516105c4999897969594939291906112f3565b60405180910390a1600160008154809291906105df90611553565b91905055505b50505050505050565b6060600260008373ffffffffffffffffffffffffffffffffffffffff1673ffffffffffffffffffffffffffffffffffffffff168152602001908152602001600020805480602002602001604051908101604052809291908181526020016000905b828210156108c05783829060005260206000209060090201604051806101200160405290816000820160009054906101000a900473ffffffffffffffffffffffffffffffffffffffff1673ffffffffffffffffffffffffffffffffffffffff1673ffffffffffffffffffffffffffffffffffffffff168152602001600182015481526020016002820180546106e390611521565b80601f016020809104026020016040519081016040528092919081815260200182805461070f90611521565b801561075c5780601f106107315761010080835404028352916020019161075c565b820191906000526020600020905b81548152906001019060200180831161073f57829003601f168201915b5050505050815260200160038201805461077590611521565b80601f01602080910402602001604051908101604052809291908181526020018280546107a190611521565b80156107ee5780601f106107c3576101008083540402835291602001916107ee565b820191906000526020600020905b8154815290600101906020018083116107d157829003601f168201915b50505050508152602001600482015481526020016005820154815260200160068201805461081b90611521565b80601f016020809104026020016040519081016040528092919081815260200182805461084790611521565b80156108945780601f1061086957610100808354040283529160200191610894565b820191906000526020600020905b81548152906001019060200180831161087757829003601f168201915b50505050508152602001600782015481526020016008820154815250508152602001906001019061064f565b505050509050919050565b60008060009054906101000a900473ffffffffffffffffffffffffffffffffffffffff16905090565b6000600154905090565b6000600260008060009054906101000a900473ffffffffffffffffffffffffffffffffffffffff1673ffffffffffffffffffffffffffffffffffffffff1673ffffffffffffffffffffffffffffffffffffffff1681526020019081526020016000208281548110610998577f4e487b7100000000000000000000000000000000000000000000000000000000600052603260045260246000fd5b9060005260206000209060090201604051806101200160405290816000820160009054906101000a900473ffffffffffffffffffffffffffffffffffffffff1673ffffffffffffffffffffffffffffffffffffffff1673ffffffffffffffffffffffffffffffffffffffff16815260200160018201548152602001600282018054610a2290611521565b80601f0160208091040260200160405190810160405280929190818152602001828054610a4e90611521565b8015610a9b5780601f10610a7057610100808354040283529160200191610a9b565b820191906000526020600020905b815481529060010190602001808311610a7e57829003601f168201915b50505050508152602001600382018054610ab490611521565b80601f0160208091040260200160405190810160405280929190818152602001828054610ae090611521565b8015610b2d5780601f10610b0257610100808354040283529160200191610b2d565b820191906000526020600020905b815481529060010190602001808311610b1057829003601f168201915b505050505081526020016004820154815260200160058201548152602001600682018054610b5a90611521565b80601f0160208091040260200160405190810160405280929190818152602001828054610b8690611521565b8015610bd35780601f10610ba857610100808354040283529160200191610bd3565b820191906000526020600020905b815481529060010190602001808311610bb657829003601f168201915b5050505050815260200160078201548152602001600882015481525050905082600260008060009054906101000a900473ffffffffffffffffffffffffffffffffffffffff1673ffffffffffffffffffffffffffffffffffffffff1673ffffffffffffffffffffffffffffffffffffffff1681526020019081526020016000208381548110610c8b577f4e487b7100000000000000000000000000000000000000000000000000000000600052603260045260246000fd5b906000526020600020906009020160000160006101000a81548173ffffffffffffffffffffffffffffffffffffffff021916908373ffffffffffffffffffffffffffffffffffffffff160217905550600260008473ffffffffffffffffffffffffffffffffffffffff1673ffffffffffffffffffffffffffffffffffffffff16815260200190815260200160002081908060018154018082558091505060019003906000526020600020906009020160009091909190915060008201518160000160006101000a81548173ffffffffffffffffffffffffffffffffffffffff021916908373ffffffffffffffffffffffffffffffffffffffff160217905550602082015181600101556040820151816002019080519060200190610db0929190610e1b565b506060820151816003019080519060200190610dcd929190610e1b565b506080820151816004015560a0820151816005015560c0820151816006019080519060200190610dfe929190610e1b565b5060e0820151816007015561010082015181600801555050505050565b828054610e2790611521565b90600052602060002090601f016020900481019282610e495760008555610e90565b82601f10610e6257805160ff1916838001178555610e90565b82800160010185558215610e90579182015b82811115610e8f578251825591602001919060010190610e74565b5b509050610e9d9190610ea1565b5090565b5b80821115610eba576000816000905550600101610ea2565b5090565b6000610ed1610ecc84611403565b6113d2565b905082815260208101848484011115610ee957600080fd5b610ef48482856114df565b509392505050565b600081359050610f0b8161163a565b92915050565b600081359050610f2081611651565b92915050565b600082601f830112610f3757600080fd5b8135610f47848260208601610ebe565b91505092915050565b600081359050610f5f81611668565b92915050565b600060208284031215610f7757600080fd5b6000610f8584828501610efc565b91505092915050565b600080600080600080600060e0888a031215610fa957600080fd5b6000610fb78a828b01610efc565b975050602088013567ffffffffffffffff811115610fd457600080fd5b610fe08a828b01610f26565b965050604088013567ffffffffffffffff811115610ffd57600080fd5b6110098a828b01610f26565b955050606061101a8a828b01610f11565b945050608061102b8a828b01610f11565b93505060a088013567ffffffffffffffff81111561104857600080fd5b6110548a828b01610f26565b92505060c06110658a828b01610f50565b91505092959891949750929550565b6000806040838503121561108757600080fd5b600061109585828601610efc565b92505060206110a685828601610f50565b9150509250929050565b60006110bc83836111e7565b905092915050565b6110cd81611499565b82525050565b6110dc81611499565b82525050565b60006110ed82611443565b6110f78185611466565b93508360208202850161110985611433565b8060005b85811015611145578484038952815161112685826110b0565b945061113183611459565b925060208a0199505060018101905061110d565b50829750879550505050505092915050565b611160816114ab565b82525050565b61116f816114ab565b82525050565b60006111808261144e565b61118a8185611477565b935061119a8185602086016114ee565b6111a381611629565b840191505092915050565b60006111b98261144e565b6111c38185611488565b93506111d38185602086016114ee565b6111dc81611629565b840191505092915050565b60006101208301600083015161120060008601826110c4565b50602083015161121360208601826112ba565b506040830151848203604086015261122b8282611175565b915050606083015184820360608601526112458282611175565b915050608083015161125a6080860182611157565b5060a083015161126d60a0860182611157565b5060c083015184820360c08601526112858282611175565b91505060e083015161129a60e08601826112ba565b506101008301516112af6101008601826112ba565b508091505092915050565b6112c3816114d5565b82525050565b6112d2816114d5565b82525050565b60006020820190506112ed60008301846110d3565b92915050565b600061012082019050611309600083018c6110d3565b611316602083018b6112c9565b8181036040830152611328818a6111ae565b9050818103606083015261133c81896111ae565b905061134b6080830188611166565b61135860a0830187611166565b81810360c083015261136a81866111ae565b905061137960e08301856112c9565b6113876101008301846112c9565b9a9950505050505050505050565b600060208201905081810360008301526113af81846110e2565b905092915050565b60006020820190506113cc60008301846112c9565b92915050565b6000604051905081810181811067ffffffffffffffff821117156113f9576113f86115fa565b5b8060405250919050565b600067ffffffffffffffff82111561141e5761141d6115fa565b5b601f19601f8301169050602081019050919050565b6000819050602082019050919050565b600081519050919050565b600081519050919050565b6000602082019050919050565b600082825260208201905092915050565b600082825260208201905092915050565b600082825260208201905092915050565b60006114a4826114b5565b9050919050565b6000819050919050565b600073ffffffffffffffffffffffffffffffffffffffff82169050919050565b6000819050919050565b82818337600083830152505050565b60005b8381101561150c5780820151818401526020810190506114f1565b8381111561151b576000848401525b50505050565b6000600282049050600182168061153957607f821691505b6020821081141561154d5761154c6115cb565b5b50919050565b600061155e826114d5565b91507fffffffffffffffffffffffffffffffffffffffffffffffffffffffffffffffff8214156115915761159061159c565b5b600182019050919050565b7f4e487b7100000000000000000000000000000000000000000000000000000000600052601160045260246000fd5b7f4e487b7100000000000000000000000000000000000000000000000000000000600052602260045260246000fd5b7f4e487b7100000000000000000000000000000000000000000000000000000000600052604160045260246000fd5b6000601f19601f8301169050919050565b61164381611499565b811461164e57600080fd5b50565b61165a816114ab565b811461166557600080fd5b50565b611671816114d5565b811461167c57600080fd5b5056fea26469706673582212202b28d6eb5d4757225badc00f907b7233be481547de94605415c65405eb2ff00264736f6c63430008000033",
  "immutableReferences": {},
  "source": "pragma solidity >=0.8.0;\npragma experimental ABIEncoderV2;\n// import \"@openzeppelin/contracts/utils/Strings.sol\";\n\ncontract Warranty {\n\taddress owner;\n\tuint fileCount = 0;\n\t\n\tstruct FileData{\n        address owner;\n        uint fileID;\n        string fileURL;\n        string fileName;\n\t\tint price;\n        int fileSize;\n        string fileDescription;\n        uint uploadTime;\n\t\tuint warrantyTime;\n    }\n\n    event FileUploaded(\n        address owner,\n        uint fileID,\n        string fileURL,\n        string fileName,\n\t\tint price,\n        int fileSize,\n        string fileDescription,\n        uint uploadTime,\n\t\tuint warrantyTime\n    );\n\tmapping(address => FileData[]) public fileMap;\n\n\tconstructor() public {\n\t\towner = msg.sender;\n\t}\n\n\tfunction uploadFile(address _owner, string memory _fileURL, string memory _fileName,int _price, int _fileSize, string memory _fileDescription, uint _warrantyTime) public{\n        if(\n            bytes(_fileURL).length > 0 &&\n            bytes(_fileName).length > 0 &&\n            _fileSize > 0 &&\n            bytes(_fileDescription).length > 0 &&\n            msg.sender != address(0)\n        ){\n            fileMap[owner].push(FileData(_owner, fileCount, _fileURL, _fileName, _price, _fileSize, _fileDescription, block.timestamp, _warrantyTime));\n\n            emit FileUploaded(_owner, fileCount, _fileURL, _fileName,_price, _fileSize, _fileDescription, block.timestamp, _warrantyTime);\n            fileCount++;\n        }\n    }\n\n\tfunction getOwner() public view returns(address){\n\t\treturn owner;\n\t}\n    \t\n    function transferOwner(address newOwner, uint ID) public{\n        FileData memory transferOwnership = fileMap[owner][ID];\n        fileMap[owner][ID].owner = newOwner;\n\t\tfileMap[newOwner].push(transferOwnership);\n\t}\n\n\n    function getFileCount() public view returns(uint){\n\t\treturn fileCount;\n\t}\n\n\tfunction getData(address ownerAddress) public view returns(FileData[] memory){\n\t\treturn fileMap[ownerAddress];\n\t}\n}\n",
  "sourcePath": "/home/kautubh/personal/dapp/polygon/warrantynfts/contracts/Warranty.sol",
  "compiler": {
    "name": "solc",
    "version": "0.8.0+commit.c7dfd78e.Emscripten.clang"
  },
  "schemaVersion": "3.4.8",
  "updatedAt": "2022-07-23T19:07:41.928Z",
  "networkType": "ethereum",
  "devdoc": {
    "kind": "dev",
    "methods": {},
    "version": 1
  },
  "userdoc": {
    "kind": "user",
    "methods": {},
    "version": 1
  }
}